:020000040800F2
:100000000020002025240008A51F0008A71F0008C5
:10001000A91F0008AB1F0008AD1F0008000000006A
:10002000000000000000000000000000AF1F0008FA
:10003000B11F000800000000B31F0008B51F000832
:10004000752400087524000875240008752400082C
:10005000752400087524000875240008752400081C
:10006000752400087524000875240008752400080C
:1000700075240008752400087524000875240008FC
:10008000752400087524000800000000752400088D
:1000900075240008752400087524000875240008DC
:1000A00075240008752400087524000875240008CC
:1000B00095230008000000007524000800000000DF
:1000C00075240008000000007524000800000000EE
:1000D0000000000000000000000000000000000020
:1000E000000000000000000075240008000000006F
:1000F0000000000000000000000000000000000000
:10010000752400080000000000000000000000004E
:1001100000000000000000000000000000000000DF
:1001200000000000000000000000000000000000CF
:1001300000000000000000000000000000000000BF
:10014000000000000000000000000000752400080E
:1001500010B5054C237833B9044B13B10448AFF301
:1001600000800123237010BD7004002000000000F7
:100170009C43000808B5034B1BB103490348AFF388
:10018000008008BD00000000740400209C430008AB
:1001900081F0004102E000BF83F0004330B54FEA38
:1001A00041044FEA430594EA050F08BF90EA020FA5
:1001B0001FBF54EA000C55EA020C7FEA645C7FEA38
:1001C000655C00F0E2804FEA5454D4EB5555B8BF5B
:1001D0006D420CDD2C4480EA020281EA030382EACC
:1001E000000083EA010180EA020281EA0303362D5E
:1001F00088BF30BD11F0004F4FEA01314FF4801C31
:100200004CEA113102D0404261EB410113F0004F42
:100210004FEA03334CEA133302D0524263EB4303F9
:1002200094EA050F00F0A780A4F10104D5F1200E97
:100230000DDB02FA0EFC22FA05F2801841F10001F2
:1002400003FA0EF2801843FA05F359410EE0A5F1C6
:1002500020050EF1200E012A03FA0EFC28BF4CF0F7
:10026000020C43FA05F3C01851EBE37101F00045AD
:1002700007D54FF0000EDCF1000C7EEB00006EEBBA
:100280000101B1F5801F1BD3B1F5001F0CD3490844
:100290005FEA30004FEA3C0C04F101044FEA44529B
:1002A00012F5800F80F09A80BCF1004F08BF5FEA22
:1002B000500C50F1000041EB045141EA050130BD02
:1002C0005FEA4C0C404141EB0101013C28BFB1F514
:1002D000801FE9D291F0000F04BF01460020B1FA5F
:1002E00081F308BF2033A3F10B03B3F120020CDA32
:1002F0000C3208DD02F1140CC2F10C0201FA0CF010
:1003000021FA02F10CE002F11402D8BFC2F1200C74
:1003100001FA02F120FA0CFCDCBF41EA0C0190402A
:10032000E41AA2BF01EB0451294330BD6FEA040473
:100330001F3C1CDA0C340EDC04F11404C4F120025E
:1003400020FA04F001FA02F340EA030021FA04F370
:1003500045EA030130BDC4F10C04C4F1200220FAC7
:1003600002F001FA04F340EA0300294630BD21FA05
:1003700004F0294630BD94F0000F83F4801306BFCB
:1003800081F480110134013D4EE77FEA645C18BFBF
:100390007FEA655C29D094EA050F08BF90EA020F56
:1003A00005D054EA000C04BF1946104630BD91EA4E
:1003B000030F1EBF0021002030BD5FEA545C05D151
:1003C0004000494128BF41F0004130BD14F5800490
:1003D0003CBF01F5801130BD01F0004545F0FE4104
:1003E00041F470014FF0000030BD7FEA645C1ABF39
:1003F000194610467FEA655C1CBF0B46024650EA70
:10040000013406BF52EA033591EA030F41F400219B
:1004100030BD00BF90F0000F04BF0021704730B521
:100420004FF4806404F132044FF000054FF00001F6
:1004300050E700BF90F0000F04BF0021704730B5B7
:100440004FF4806404F1320410F0004548BF40428C
:100450004FF000013EE700BF42004FEAE2014FEAE1
:1004600031014FEA02701FBF12F07F4393F07F4FBC
:1004700081F06051704732F07F4208BF704793F0BF
:100480007F4F04BF41F40021704730B54FF46074D2
:1004900001F0004521F000411CE700BF50EA0102D5
:1004A00008BF704730B54FF000050AE050EA01027E
:1004B00008BF704730B511F0004502D5404261EBEE
:1004C00041014FF4806404F132045FEA915C3FF42F
:1004D000D8AE4FF003025FEADC0C18BF03325FEACC
:1004E000DC0C18BF033202EBDC02C2F1200300FA7D
:1004F00003FC20FA02F001FA03FE40EA0E0021FAA2
:1005000002F11444BDE600BF70B54FF0FF0C4CF48F
:10051000E06C1CEA11541DBF1CEA135594EA0C0F41
:1005200095EA0C0F00F0DEF82C4481EA030621EA7C
:100530004C5123EA4C5350EA013518BF52EA0335B7
:1005400041F4801143F4801338D0A0FB02CE4FF069
:100550000005E1FB02E506F00042E0FB03E54FF099
:100560000006E1FB03569CF0000F18BF4EF0010E91
:10057000A4F1FF04B6F5007F64F5407404D25FEA8D
:100580004E0E6D4146EB060642EAC62141EA555140
:100590004FEAC52040EA5E504FEACE2EB4F1FD0C82
:1005A00088BFBCF5E06F1ED8BEF1004F08BF5FEA00
:1005B000500E50F1000041EB045170BD06F00046B2
:1005C00046EA010140EA020081EA0301B4EB5C045F
:1005D000C2BFD4EB0C0541EA045170BD41F4801157
:1005E0004FF0000E013C00F3AB8014F1360FDEBF7C
:1005F000002001F0004170BDC4F10004203C35DA58
:100600000C341BDC04F11404C4F1200500FA05F3DA
:1006100020FA04F001FA05F240EA020001F000427B
:1006200021F0004110EBD37021FA04F642EB0601F1
:100630005EEA430E08BF20EAD37070BDC4F10C041B
:10064000C4F1200500FA04F320FA05F001FA04F2DF
:1006500040EA020001F0004110EBD37041F10001CB
:100660005EEA430E08BF20EAD37070BDC4F12005D6
:1006700000FA05F24EEA020E20FA04F301FA05F23E
:1006800043EA020321FA04F001F0004121FA04F2E6
:1006900020EA020000EBD3705EEA430E08BF20EAB6
:1006A000D37070BD94F0000F0FD101F000464000F0
:1006B00041EB010111F4801F08BF013CF7D041EA72
:1006C000060195F0000F18BF704703F00046520076
:1006D00043EB030313F4801F08BF013DF7D043EA47
:1006E0000603704794EA0C0F0CEA135518BF95EAFD
:1006F0000C0F0CD050EA410618BF52EA4306D1D184
:1007000081EA030101F000414FF0000070BD50EAA2
:10071000410606BF1046194652EA430619D094EA2C
:100720000C0F02D150EA013613D195EA0C0F05D116
:1007300052EA03361CBF104619460AD181EA03016A
:1007400001F0004141F0FE4141F470014FF0000022
:1007500070BD41F0FE4141F4780170BD70B54FF0BD
:10076000FF0C4CF4E06C1CEA11541DBF1CEA13553D
:1007700094EA0C0F95EA0C0F00F0A7F8A4EB05041F
:1007800081EA030E52EA03354FEA013100F0888016
:100790004FEA03334FF0805545EA131343EA1263DF
:1007A0004FEA022245EA111545EA10654FEA002694
:1007B0000EF000419D4208BF964244F1FD0404F54D
:1007C000407402D25B084FEA3202B61A65EB0305A9
:1007D0005B084FEA32024FF480104FF4002CB6EB66
:1007E000020E75EB030E22BFB61A754640EA0C00E6
:1007F0005B084FEA3202B6EB020E75EB030E22BF26
:10080000B61A754640EA5C005B084FEA3202B6EB66
:10081000020E75EB030E22BFB61A754640EA9C0025
:100820005B084FEA3202B6EB020E75EB030E22BFF5
:10083000B61A754640EADC0055EA060E18D04FEAB3
:10084000051545EA16754FEA06164FEAC30343EA53
:1008500052734FEAC2025FEA1C1CC0D111F4801F20
:100860000BD141EA00014FF000004FF0004CB6E719
:1008700011F4801F04BF01430020B4F1FD0C88BFB8
:10088000BCF5E06F3FF6AFAEB5EB030C04BFB6EBC3
:10089000020C5FEA500C50F1000041EB045170BDB6
:1008A0000EF0004E4EEA113114EB5C04C2BFD4EBE3
:1008B0000C0541EA045170BD41F480114FF0000E67
:1008C000013C90E645EA060E8DE60CEA135594EAE3
:1008D0000C0F08BF95EA0C0F3FF43BAF94EA0C0FE6
:1008E0000AD150EA01347FF434AF95EA0C0F7FF45B
:1008F00025AF104619462CE795EA0C0F06D152EAAF
:1009000003353FF4FDAE1046194622E750EA410692
:1009100018BF52EA43067FF4C5AE50EA41047FF4A3
:100920000DAF52EA43057FF4EBAE12E74FF0FF3C08
:1009300006E000BF4FF0010C02E000BF4FF0010CD9
:100940004DF804CD4FEA410C7FEA6C5C4FEA430C52
:1009500018BF7FEA6C5C1BD001B050EA410C0CBFA1
:1009600052EA430C91EA030F02BF90EA020F002003
:10097000704710F1000F91EA030F58BF994208BF6A
:1009800090422CBFD8176FEAE37040F00100704727
:100990004FEA410C7FEA6C5C02D150EA013C07D17E
:1009A0004FEA430C7FEA6C5CD6D152EA033CD3D0C9
:1009B0005DF8040B704700BF8446104662468C46C3
:1009C0001946634600E000BF01B5FFF7B7FF0028F6
:1009D00048BF10F1000F01BD4DF808EDFFF7F4FF1F
:1009E0000CBF012000205DF808FB00BF4DF808EDAA
:1009F000FFF7EAFF34BF012000205DF808FB00BFCD
:100A00004DF808EDFFF7E0FF94BF012000205DF8EE
:100A100008FB00BF4DF808EDFFF7CEFF94BF0120A3
:100A200000205DF808FB00BF4DF808EDFFF7C4FF9C
:100A300034BF012000205DF808FB00BF4FEA4102EF
:100A400012F5001215D211D56FF47873B3EB625220
:100A500012D94FEAC12343F0004343EA505311F047
:100A6000004F23FA02F018BF404270474FF00000D9
:100A7000704750EA013005D111F0004008BF6FF017
:100A8000004070474FF00000704700BF4A0011D28D
:100A900012F5001211D20DD56FF47873B3EB6252D8
:100AA0000ED44FEAC12343F0004343EA505323FAE4
:100AB00002F070474FF00000704750EA013002D159
:100AC0004FF0FF3070474FF00000704753B94AB9FC
:100AD000002908BF00281CBF4FF0FF314FF0FF3046
:100AE00001F0DEB8ADF1080C6DE904CE00F006F8B7
:100AF000DDF804E0DDE9022304B070472DE9F0479A
:100B0000089D04468E46002B4DD18A42944669D9F1
:100B1000B2FA82F252B101FA02F3C2F1200120FAD4
:100B200001F10CFA02FC41EA030E94404FEA1C4822
:100B3000210CBEFBF8F61FFA8CF708FB16E341EA1E
:100B4000034306FB07F199420AD91CEB030306F1A4
:100B5000FF3080F01F81994240F21C81023E6344C5
:100B60005B1AA4B2B3FBF8F008FB103344EA034469
:100B700000FB07F7A7420AD91CEB040400F1FF337E
:100B800080F00A81A74240F207816444023840EABB
:100B90000640E41B00261DB1D4400023C5E90043F4
:100BA0003146BDE8F0878B4209D9002D00F0EF8077
:100BB0000026C5E9000130463146BDE8F087B3FAAA
:100BC00083F6002E4AD18B4202D3824200F2F98092
:100BD000841A61EB030301209E46002DE0D0C5E995
:100BE000004EDDE702B9FFDEB2FA82F2002A40F0E1
:100BF0009280A1EB0C014FEA1C471FFA8CFE0126E4
:100C0000200CB1FBF7F307FB131140EA01410EFB87
:100C100003F0884208D91CEB010103F1FF3802D22E
:100C2000884200F2CB804346091AA4B2B1FBF7F028
:100C300007FB101144EA01440EFB00FEA64508D94B
:100C40001CEB040400F1FF3102D2A64500F2BB8088
:100C50000846A4EB0E0440EA03409CE7C6F12007D7
:100C6000B34022FA07FC4CEA030C20FA07F401FA1D
:100C700006F31C43F9404FEA1C4900FA06F3B1FBA6
:100C8000F9F8200C1FFA8CFE09FB181140EA01410B
:100C900008FB0EF0884202FA06F20BD91CEB0101A8
:100CA00008F1FF3A80F08880884240F28580A8F100
:100CB00002086144091AA4B2B1FBF9F009FB101152
:100CC00044EA014100FB0EFE8E4508D91CEB0101F0
:100CD00000F1FF346CD28E456AD90238614440EA93
:100CE0000840A0FB0294A1EB0E01A142C846A64613
:100CF00056D353D05DB1B3EB080261EB0E0101FA9C
:100D000007F722FA06F3F1401F43C5E900710026F8
:100D10003146BDE8F087C2F12003D8400CFA02FC4E
:100D200021FA03F3914001434FEA1C471FFA8CFE5E
:100D3000B3FBF7F007FB10360B0C43EA064300FB4E
:100D40000EF69E4204FA02F408D91CEB030300F1EC
:100D5000FF382FD29E422DD9023863449B1B89B2A3
:100D6000B3FBF7F607FB163341EA034106FB0EF32C
:100D70008B4208D91CEB010106F1FF3816D28B42D9
:100D800014D9023E6144C91A46EA004638E72E46A5
:100D9000284605E70646E3E61846F8E64B45A9D29D
:100DA000B9EB020864EB0C0E0138A3E74646EAE70C
:100DB000204694E74046D1E7D0467BE7023B6144BA
:100DC00032E7304609E76444023842E703685A00D4
:100DD0004CBF43F0004323F000431844704700BF6A
:100DE0002DE9F84329B34F1E044615463E464FF001
:100DF000000808EB060101EBD171491004EBC109B1
:100E00004846FFF7E3FF0346C80008308F422044FE
:100E100009D0AB4209D8FFF7D9FF0138A8420AD25E
:100E200001F10108E5E7AB4205D9884501D04E1E26
:100E3000DFE74FF000094846BDE8F883012807D0F6
:100E4000022807D0044B00280CBF1846002070472A
:100E50000248704702487047151500081915000828
:100E60001D15000830B5234B83B004468D1E3BB3DF
:100E700001A92846AFF30080E8B101992A46FFF79F
:100E8000AFFF0146B8B1FFF7A1FF4B68A064012B8B
:100E90002CD0002B01F1040024DBFFF797FF002387
:100EA000C4E913030368002B11DBFFF78FFF2061F8
:100EB000002003B030BD00230920236103B030BD02
:100EC0000D4B0E49C91AC91018460191D6E7C3F354
:100ED0000360FFF7B3FF0028206114BF0020092042
:100EE00003B030BD0123C4E91303DBE70023236112
:100EF0000520DEE70000000070470008D049000828
:100F00000368DA0710B5044606D49B0700F14800D1
:100F100009D500F05BFC2368590709D51A070ED5DF
:100F2000DB0613D510BD00F049FC23685907F5D442
:100F300004F1D00000F052FC23681A07F0D404F545
:100F4000A87000F053FC2368DB06EBD404F5E870CE
:100F5000BDE8104000F08EBC0920704703460068D1
:100F600000B11844704700BF704700BF70B5044619
:100F70000E46316C2046FFF775FF054688B9326C86
:100F80006261236932462146012098470828F0D043
:100F9000072806D12846316CFFF7E6FF301D00F028
:100FA00001FC03F069F900BF2DE9F0470D1DD0F8F1
:100FB0000C80D0F81890074614460FCDADF5727D21
:100FC0000DF10C0CACE80F000FCDACE80F000FCD0D
:100FD000ACE80F0095E80F0002AE4FF0000E8CE871
:100FE0000F00C6F800E020E0336C7B614FF4F07234
:100FF00031467AA800F056FE3B697AAA3946504637
:101000009847889B73642146CDE9006905463B46B5
:101010003A460120C0470446E0B94FF4F0727AA97D
:10102000304600F03FFE082D1AD1316C3846FFF7EC
:1010300019FF09345FFA84FA05460028D4D0B36B4F
:1010400073643A46CDE900693B464AF0100101203D
:10105000C04700B1092528460DF5727DBDE8F0872F
:10106000072DF7D12046316CFFF77EFF03A800F073
:1010700099FB00BF406C7047F0B5CB6B0B6401F17E
:10108000040C0E460546BCE80F00F9B001AC0FC4D5
:10109000BCE80F000FC4BCE80F000FC49CE80F00B1
:1010A0004FF0FF3784E80F00009706E02B696A468F
:1010B000294698470828044608D110992846FFF782
:1010C000D1FE0028F2D0092079B0F0BD6846FFF7C4
:1010D00017FF062CF7D131462846FFF747FF00BF20
:1010E000C160D96B82611964002219465CE700BFB8
:1010F00070B5C66843690B64AEB903690A46044615
:101100000D46014602209847072805D008280FD130
:1011100029462046FFF72AFF3046296CFFF724FFB7
:10112000281D00F03FFB0122FFF73EFF03F0A4F86B
:1011300003F0A2F8C2681AB1CA6B0A64002233E74E
:101140009AE700BF704700BF836801460BB10120DA
:1011500018477047012912D009D873B90F2A0CD843
:1011600000EB820218465368009A136070470339F7
:10117000012994BF012002207047022070470846D1
:10118000704700BF00B585B00A46002303A900914F
:101190001946FFF7DFFF039805B05DF804FB00BFB9
:1011A000012912D009D873B90F2A0CD800EB82009C
:1011B000009A12684260184670470339012994BFAB
:1011C000012002207047022070470846704700BF88
:1011D00010B584B0002303AC039200940A4619466C
:1011E000FFF7DEFF04B010BD70B5D36B136402F1DE
:1011F000040C05460C46BCE80F00ADF50E7D0DF164
:101200005C0EAEE80F00BCE80F00AEE80F00BCE8D3
:101210000F00AEE80F009CE80F004FF0FF368EE89D
:101220000F00169610E0FFF7D3FF214616A8A84737
:10123000034616AA6946082083B9049B98470528E7
:1012400006460CD0092809D026996846FFF70AFE01
:1012500003466A460C2116A8002BE4D0092616A8DE
:10126000FFF74EFE30460DF50E7D70BD2DE9F04FB7
:10127000CC6C89B01E4654F8043B06940D461746C4
:1012800000F00308002E79D01A0C1B0405938DF88A
:101290001D200223D2B204EB82048DF81C302B6D8A
:1012A000B8F1020F08BFAC6B13F001030CD005A915
:1012B000384600F079FB18B9082009B0BDE8F08F76
:1012C000092009B0BDE8F08FD4F800A0BAF1000FF2
:1012D000EDD0019300F008030293022E4AD0B4F837
:1012E00000A0B4F802900434AB6C29F0010B0F217C
:1012F00038469B44FFF746FF834539D82AF001035F
:101300009B44834594BF002001204FEA490303F02A
:1013100002030AF0010A43EA0A03012B49D0022B17
:1013200032D0002BCCD1B8F1000F02D0002840F011
:10133000CD800434D4F800A0BAF1000FCDD105A9B6
:10134000384600F031FB0028BAD1019B002BB3D006
:101350000F213846FFF716FF0E2102463846FFF7E9
:1013600037FF38466A4A0F21FFF732FF0720A8E708
:101370000020CAE7D4F804900834B5E71B020593AF
:101380000323ADF81C308AE7236823F0004BB8F143
:10139000000F45D128B1029A002A5CD0BBF1000FA2
:1013A00074D0002B00DA04340BF1010B04EB8B0436
:1013B000C0E7B8F1000F19D1B0B163682268991C79
:1013C0004FEAD2723FF47CAF05F15801013304912A
:1013D00000F09080201DFFF7C1FD04AB01462846B8
:1013E000AFF3008000285BD10834A3E70D21384615
:1013F000D5F82090FFF7C6FE8145F5D1AB6A9C4237
:10140000F2D12046FFF7E2FC0F2102463846FFF7F3
:10141000DFFE38462A460021FFF7DAFE072050E7B4
:101420000D213846D5F82090FFF7ACFE814501D05C
:101430002368B6E7AB6A9C42FAD104230022C5E9CF
:101440000B23E318C5F828B06B632368002B59DB26
:1014500001230193A8E705F15803CDF80C8004F1AE
:10146000040AB04691461E460EE050460496FFF729
:1014700075FD0022014604AB284609F101090AF175
:10148000040AAFF30080E0B9D945EED10D2138460A
:10149000FFF778FE049BAC62C5E90803062010E75D
:1014A00081460D213846FFF76DFEB9F1020F286223
:1014B00025D12B46049A43F82C2F6B62AC62062090
:1014C000FFE646462368DDF80C806AE72046FFF712
:1014D0007DFC04340246AC6328461446AFF300801A
:1014E00000283FF4EDAE384622460F21FFF770FE8C
:1014F0000720E6E60D213846FFF744FE2862049BEC
:101500006B62DBE70BF1010004EB80007AE700BFC0
:10151000000000000023A9E60123A7E60223A5E6B8
:101520002DE9F0430646C3B015461C46042900F2D7
:10153000BF80DFE801F09E57BD2D0300002C40F076
:10154000B780102A00F2B4800368D80600F1F98051
:1015500020AF384600F098F9B46B394600234FF0BD
:10156000010C0CFA03F22A42204603F1010303D0D6
:1015700050F8042B0A600446042B01F10401F0D159
:101580003846B46300F076F9002043B0BDE8F0833C
:10159000032C40F08D8094B204EB1243102B4FEAE1
:1015A000124500F2858003681F0700F1D28020AF4A
:1015B000384600F03DF9B26B07EBC50154B10B465C
:1015C000D01A01EBC401E4001D5843F8045B8B42C0
:1015D000FAD122443846B26300F008F9002043B043
:1015E000BDE8F083012C4FEA124895B25CD0052C7F
:1015F0005ED108EB0509B9F1200F59D8B8F10F0FEA
:1016000079D9A946002D40F08A80B36B6DB320AF25
:101610004FF0000907EBC807043F03EBC50553F87B
:10162000041B47F8041FAB42F9D1B9F1000F0FD0EA
:101630006F464146102938BF102107EBC10184399C
:1016400003EBC90553F8040B41F8040FAB42F9D181
:10165000012C00F08680B8F10F0FB56347D9B9F1BE
:10166000000F02D0684600F0B9F8002043B0BDE892
:10167000F083ECB9806B23461FFA82FC0124371DEE
:1016800004FA03F212EA0C0F014604D051F8042BBD
:1016900047F8232008460133102BF1D115F40055EB
:1016A000E3D1B063284604E008EB0503102B03D90F
:1016B000022043B0BDE8F083B8F10F0FF8D83368CB
:1016C000DA0706D5304623F0030340F8483B00F024
:1016D00079F820AF384600F075F8B36B002D97D13C
:1016E0001D460435B563384600F068F8BDE720A80C
:1016F00000F06CF8B3E7B9F1100F40D9A9F1100967
:101700003368D90708D523F00103304643F00203BC
:1017100040F8483B00F05EF8B9F1000F32D0336872
:101720005A0720D4B8F10F0F25D96F463846C8F1B3
:10173000100500F057F8002DB36B7FF77AAF20AF9C
:1017400068E723F01003336006F5E87000F09CF8BA
:10175000FEE623F00803036000F5A87000F068F8C7
:1017600025E720AFBDE7304623F0040340F8D03B27
:1017700000F038F8D6E720A800F02CF8D5E74FF0B5
:101780000009BDE7B8F10F0F3FF63FAF20AF384675
:1017900000F020F8B36B002D7FF43AAF384600F02C
:1017A00015F862E700F1340191E838009C46A6463E
:1017B0004CF8045D90E8FF0FE54600BD90EC210B6E
:1017C000704700BF80EC210B704700BF90EC200BEE
:1017D000704700BF80EC200B704700BFD0EC200B9F
:1017E000704700BFC0EC200B704700BFF0EC020157
:1017F000F0EC0211F0EC0221F0EC0231F0EC0241CD
:10180000F0EC0251F0EC0261F0EC0271F0EC0281BC
:10181000F0EC0291F0EC02A1F0EC02B1F0EC02C1AC
:10182000F0EC02D1F0EC02E1F0EC02F1704700BF05
:10183000E0EC0201E0EC0211E0EC0221E0EC02310C
:10184000E0EC0241E0EC0251E0EC0261E0EC0271FC
:10185000E0EC0281E0EC0291E0EC02A1E0EC02B1EC
:10186000E0EC02C1E0EC02D1E0EC02E1E0EC02F1DC
:10187000704700BFB0FC0181B0FC0191B0FC01A138
:10188000B0FC01B1704700BFA0FC0181A0FC019138
:10189000A0FC01A1A0FC01B1704700BFEC4600B55F
:1018A0002DE900502DE9FF1F4FF000032DE90C003A
:1018B00001A9FFF7E1FBDDF840E012B0704700BF7F
:1018C000EC4600B52DE900502DE9FF1F4FF0000355
:1018D0002DE90C0001A9FFF70BFCDDF840E012B088
:1018E000704700BFEC4600B52DE900502DE9FF1F01
:1018F0004FF000032DE90C0001A9FFF71BFCDDF8F8
:1019000040E012B0704700BFEC4600B52DE9005032
:101910002DE9FF1F4FF000032DE90C0001ABFFF78D
:10192000DFFBDDF840E012B0704700BFEC4600B5C9
:101930002DE900502DE9FF1F4FF000032DE90C00A9
:1019400001AAFFF751FCDDF840E012B0704700BF7C
:10195000027A03467AB9427AA2B14168013A10B4D8
:101960004272086803220C1D1A7202025C60000EAB
:1019700010BC1A6070470068013A1A7202021A60BD
:10198000000E7047B020704700B585B0002303AA51
:10199000009219460C22FFF7DDFB039805B05DF8B5
:1019A00004FB00BFF0E700BF2DE9F043054685B01A
:1019B0000E464FF000083046FFF7CAFFB028044635
:1019C00000F0BA80070620D500F0F003802B4DD040
:1019D000902B36D0A02B60D0B02B74D0C02B00F051
:1019E0008B8000F0F803D02B0BD100F007020132FE
:1019F000052342F4002201212846FFF791FD00282B
:101A0000D9D0092005B0BDE8F0838300DBB21F1DEB
:101A10000DF10C0900231946CDF800900D2228463F
:101A2000FFF798FB039BCDF8009060064CBFDF1BCF
:101A3000FF1800230D22194628460397FFF7B0FB35
:101A4000B9E700F00D030D2BDBD003AF002300F04E
:101A50000F02194600972846FFF77CFB00230097EA
:101A60000D2219462846FFF79BFBA4E73046FFF7F7
:101A70006FFF24022043B0F5004FC2D004010023C1
:101A8000A2B219462846FFF74BFD0028B9D114F43D
:101A9000004F18BF4FF001088DE7C24302F0070363
:101AA0004FF47F621A41010702F47F624FF0000396
:101AB00048BF42F4804219462846FFF731FD00280E
:101AC0003FF479AF9DE7B1283BD0B22800F0938076
:101AD000B32841D000F0FC03B42B92D000F00702F1
:101AE0000132012342F4002219462846FFF718FD6F
:101AF00000283FF460AF84E7C6284AD0C72854D0F6
:101B000000F0F803C02B63D0C82868D0C9287FF440
:101B100078AF3046FFF71CFF020300F00F0002F41D
:101B2000702201300243012105232846FFF7F8FC0B
:101B300000283FF440AF64E7B8F1000F18D0002050
:101B400060E73046FFF704FF024600283FF459AF34
:101B500010F0F003C8D054E73046FFF7F9FE020357
:101B600000F00F03013302F470221A430123BBE794
:101B700003AC43460E22414600942846FFF7EAFA9A
:101B8000009443460F2241462846FFF709FB404692
:101B900038E73046FFF7DCFE020300F00F030133A5
:101BA00002F470221A4303239EE73046FFF7D0FE6B
:101BB000024600283FF425AF10F0F0037FF421AF78
:101BC00004212846FFF7ACFC00283FF4F4AE18E7E8
:101BD00000F00F020132032342F4202284E7304652
:101BE000FFF7B6FE00F0F00200F00F0310320133F1
:101BF00043EA023297E700230DF10C090D22194642
:101C0000CDF800902846FFF7A5FA3046FFF7A0FE72
:101C100002064FF002040CD5039B00F07F00A040A9
:101C2000184403903046FFF793FE030604F10704BF
:101C3000F2D4039BCDF8009000F07F02A24003F5A0
:101C400001731A440023039219460D222846FFF718
:101C5000A7FAB0E610B5C26C536884B04FF0030C1D
:101C600008321C0208461B0E01A9019402928DF84D
:101C70000CC08DF80D30FFF797FE04B010BD00BF0B
:101C800008B5FFF78FFE806C08BD00BF08B5FFF7F1
:101C900089FEC06CC379023300EB830008BD00BF2E
:101CA000704700BF844641EA000313F003036DD17F
:101CB000403A41D351F8043B40F8043B51F8043B0F
:101CC00040F8043B51F8043B40F8043B51F8043B16
:101CD00040F8043B51F8043B40F8043B51F8043B06
:101CE00040F8043B51F8043B40F8043B51F8043BF6
:101CF00040F8043B51F8043B40F8043B51F8043BE6
:101D000040F8043B51F8043B40F8043B51F8043BD5
:101D100040F8043B51F8043B40F8043B51F8043BC5
:101D200040F8043B51F8043B40F8043B51F8043BB5
:101D300040F8043B403ABDD2303211D351F8043B55
:101D400040F8043B51F8043B40F8043B51F8043B95
:101D500040F8043B51F8043B40F8043B103AEDD204
:101D60000C3205D351F8043B40F8043B043AF9D255
:101D7000043208D0D2071CBF11F8013B00F8013B28
:101D800001D30B8803806046704700BF082A13D335
:101D90008B078DD010F003038AD0C3F10403D21A4D
:101DA000DB071CBF11F8013B00F8013B80D331F881
:101DB000023B20F8023B7BE7043AD9D3013A11F801
:101DC000013B00F8013BF9D20B7803704B7843706C
:101DD0008B7883706046704770B50D4E0D4D761B45
:101DE000B61006D0002455F8043B01349847A642AB
:101DF000F9D1094E094D761B02F0D0FAB61006D083
:101E0000002455F8043B01349847A642F9D170BD2F
:101E1000D0490008D0490008D8490008D049000836
:101E2000830730B548D0541E002A3FD0CAB20346BB
:101E300001E0013C3AD303F8012B9D07F9D1032CB3
:101E40002DD9CDB245EA05250F2C45EA054536D9F1
:101E5000A4F1100222F00F0C03F1200EE6444FEA29
:101E6000121C03F1100242E9045542E902551032F6
:101E70007245F8D10CF1010214F00C0F03EB0212C1
:101E800004F00F0C13D0ACF1040323F0030304336C
:101E9000134442F8045B9342FBD10CF003042CB1D1
:101EA000CAB21C4403F8012B9C42FBD130BD6446EE
:101EB0001346002CF4D1F9E703461446BFE71A464F
:101EC000A446E0E7024B13B1024800F005B87047A2
:101ED00000000000E51E0008002301461A461846CF
:101EE00000F01AB838B5084B084D5B1B9C1007D0A2
:101EF000043B1D44013C55F804399847002CF9D1A6
:101F0000BDE8384002F050BADC490008D849000862
:101F1000704700BF704700BF2DE9F047DFF880A091
:101F20000646DAF8000098460F469146FFF7F0FFA4
:101F30001A4B1B68D3F8484124B365681F2D26DC73
:101F40005EB96B1C0235DAF80000636044F8257056
:101F5000FFF7E0FF0020BDE8F08704EB85010123D7
:101F6000C1F88890D4F88821AB401A43022EC4F8F7
:101F70008821C1F80881E4D1D4F88C211343C4F836
:101F80008C31DEE703F5A674C3F84841D5E7DAF8EB
:101F90000000FFF7BFFF4FF0FF30DCE7D043000841
:101FA000300400207047FEE7FEE7FEE7FEE77047DB
:101FB0007047704708B500F021F808BD08B500F07B
:101FC00009F800F0AFF902F053F900F085F80020AD
:101FD00008BD00004FF0E023064A5A61064AF0218E
:101FE00082F82310002199610720186182F82310DC
:101FF000704700BFFEFFFF0000ED00E0094B1A68CC
:1020000002F180721A601B685BB110B4064CD4E90F
:102010000023501C43F10001C4E900015DF8044BAA
:10202000704770479004002098040020034B186804
:102030004FF0E0239B69C01A0138704790040020DC
:1020400038B50546064B1C684FF0E0239B69E41A3F
:10205000013CFFF7EBFF001BA842FAD338BD00BFDD
:102060009004002038B50546002409E0064B1868A6
:10207000064BA3FB003080090338FFF7E1FF013472
:10208000AC42F3D338BD00BF6C040020D34D6210C6
:1020900010B50E4B1B782BB10D49002001F0E6FF67
:1020A00000240FE002F0E4F8084B01221A70F3E775
:1020B0004FF47A70FFF7D6FF22460649002001F060
:1020C000D5FF0134042CF3DD10BD00BF2105002035
:1020D000D4430008FC43000810B582B0294B1B789C
:1020E0002BB12949294801F09DFD002413E000F09F
:1020F00019F9244B01221A70F3E740F207712448C2
:1021000000F0A9FD0028F8D0224B1A5D4FF04023C3
:10211000C3F8282401342B2CEFD91F491F4801F0A4
:1021200081FD1F4B30221F491F4801F07BFD1F48D6
:1021300001F078FD1E4801F075FD1E491E4801F0B2
:1021400071FD80211D4800F001F9694601A800F0E9
:1021500053F90028F9D10199194801F063FD009B5A
:10216000072BF2D908221749019802F08DF80028B0
:10217000EBD1154801F056FDFFF78AFF134801F037
:1021800051FDE2E720050020340400200844000847
:1021900000440040084600084004002010440008A5
:1021A000FC4500081444000850440008844400081A
:1021B00008450008544500086C450008A0040020AC
:1021C0009C450008CC450008D8450008EC450008AF
:1021D00030B589B04FF4A06000F0BEFB032000F0E2
:1021E00041FA684600F05AFA01258DF8155000248E
:1021F00003948DF8145004940694194B00938DF8B1
:10220000084001944FF4005307936946032000F0FF
:1022100077FA032000F04CFA032000F053FA032071
:1022200000F064FA684600F039FA8DF8154003941E
:102230008DF81450049406940A4B00938DF80840CE
:1022400001944FF4405307936946042000F058FA74
:10225000042000F02DFA042000F03EFA09B030BD51
:10226000284400402444004008B540F2115000F0DA
:1022700073FB042201214FF0904000F0ECFA082299
:1022800001214FF0904000F0E6FA042301220221E0
:102290004FF0904000F086FA0423012200214FF015
:1022A000904000F0A1FA0823012202214FF0904053
:1022B00000F078FA0823012200214FF0904000F04E
:1022C00093FA08BD10B540F2117000F045FB144CB4
:1022D000204600F031FC0021204600F07FFC002168
:1022E000204600F087FC0021204600F06BFC4FF4F4
:1022F000E131204600F03CFC0421204600F093FC34
:102300000821204600F087FC8021204600F09BFC3D
:102310004021204600F08FFC204600F077FC10BDE5
:102320000044004008B5002201211C2000F0C4FA3E
:10233000FFF79AFFFFF7C6FFFFF74AFF40F204716D
:10234000014800F090FC08BD0044004038B5054647
:102350000C46042000F0CAF92146042000F012FACD
:102360002946042000F006FA042000F0B5F9064DD5
:102370000649284600F0A2FC0421284600F07CFC17
:10238000034B1C6038BD00BF00440040040004073C
:102390002C05002070B51249124800F078FC00B9F5
:1023A00070BD0F490F4800F089FC0F4B5E6E0F4D5A
:1023B0002C68042000F0EEF9201A0D4B1860013053
:1023C000002333540B4B01221A60042000F08EF9D5
:1023D0002968042000F0D6F9042000F07DF9DFE739
:1023E0000400040700440040000002402C050020C7
:1023F0002805002024050020074B5B6E0360074B77
:102400001B680B60064B1B681BB10020044B186057
:1024100070470120704700BF0000024028050020DF
:1024200024050020DFF834D00D480E490E4A002361
:1024300002E0D458C4500433C4188C42F9D30B4A78
:102440000B4C002301E013600432A242FBD300F0E6
:1024500013F8FFF7C1FCFFF7B1FDFEE700200020F5
:102460000000002070040020DC49000870040020F7
:102470000C060020FEE70000724BDA6902F006024B
:10248000062A82B047D0DA69900444D56E4A6F4973
:1024900059605A6099609A601A6942F020021A6184
:1024A0001A6942F040021A61DA68D107FCD41A694D
:1024B00022F020021A611A6942F010021A61DA69E8
:1024C00012F0060F624A40F0AE80A52313805D4BE8
:1024D0005F4AD969090A01F0DF015180D969C1F366
:1024E00007419180D969090ED180196AC9B2118159
:1024F000196AC1F307215181DA68D207FCD41A693D
:1025000022F010021A611A6922F400721A611A6923
:1025100042F080021A614F4AD2F8883043F47003C7
:10252000C2F888304C4B1A6842F001021A601A68EF
:102530009007FCD55A6842F080025A60002201924E
:10254000019A4F2A77D95A6842F090025A600022C5
:102550000192019A4F2A71D95A68404822F0030229
:102560005A601A6822F0867222F480321A60596822
:102570003B4A0A405A605A6822F0084222F4741218
:102580005A60DA6A0240DA621A6B22F4817222F02F
:1025900001021A631A6B22F480321A631A6B22F05A
:1025A00000421A63596B21F001015963D3F8C0103E
:1025B000002221F48031C3F8C0109A60C3F8CC2007
:1025C0005A685A60596841F400515960596841F499
:1025D000806159605A6822F0036222F470225A60C6
:1025E000DA6A0240DA625A6842F0006242F48022FB
:1025F0005A60DA6ADA621A6842F080721A601A68FF
:102600009101FCD55A6822F003025A605A6842F0E0
:1026100002025A605A681207FCD500214FF0006090
:1026200002B000F08DB9DB6903F00603022B7FF4E2
:102630004EAFBB234AE7019A013280E7019A01328B
:1026400086E700BF00200240AB89EFCD230167453C
:1026500000F8FF1F00ED00E000100240F0FFFF3F18
:102660000C00FF08142343430A495A5822F0010280
:102670005A5000225A50043180005A5004315A50A6
:1026800004315A50044A0F23516803FA00F00843FA
:102690005060704708000240000002400023C0E97B
:1026A0000033C0E90333037283618382C3617047DF
:1026B0001423034A5843835823F020038350704760
:1026C000080002401423034A5843835823F48043EC
:1026D00083507047080002401423034A584383582C
:1026E00043F0010383507047080002401423034A5B
:1026F0005843835823F00103835070470800024079
:1027000038B50446FFF7F2FF14206043184B0A68FF
:10271000C2500433CA68C250083B0A8BC250043B03
:102720000D694A68C4582A43CD6924F47C542A436D
:102730002243C2500A7A012AC2580CBF42F040021A
:1027400022F04002C2500A7D012AC2580CBF42F05A
:10275000800222F08002C2504A7D22B9C25822F083
:102760001002C25038BDC25842F01002F9E700BF53
:10277000100002401423584303F1804303F5003353
:10278000C150704714235843014B89B2C150704760
:102790000C00024014235843014BC058704700BF3F
:1027A0000C0002402DE9F0430568C46800264FF094
:1027B000010E4FF003080EFA06F71F420DD0770006
:1027C00008FA07FC01FA07F925EA0C0524EA0C04CB
:1027D00002FA07F749EA05053C430136102EEAD113
:1027E0000560C460BDE8F08301294168F0B50CBF05
:1027F000194399434FF6FF744160A242816815D195
:10280000C46B002201274FF0030C07FA02F61E42A8
:102810001CBF55000CFA05F502F101021CBF29434B
:102820003443102AF1D18160C463F0BD0024012734
:102830004FF0030C07FA04F51D4207D065000CFAAF
:1028400005F621EA060102FA05F529430134102CA8
:10285000F0D18160E9E7F0B5076A466A00234FF0DE
:10286000010C4FF00F0E0CFA03F4144207D09D0038
:102870000EFA05F427EA040701FA05F52F430133A0
:10288000082BF0D100234FF0010C4FF00F0E03F195
:1028900008040CFA04F4144207D09C000EFA04F564
:1028A00026EA050601FA04F426430133082BEED18B
:1028B00007624662F0BD00001E4B30B5DC6804F4D0
:1028C000E064B4F5A06F08D022D8B4F5407F28D0DA
:1028D000B4F5806F28D0184CDC6002242546C5F181
:1028E0000405A940C4F104050F24EC4004EA0203E6
:1028F000124A0B431B011118DBB281F80033410966
:10290000012300F01F0003FA00F042F8210030BD5F
:10291000B4F5C06F0BD0B4F5E06FDCD10424002512
:10292000DDE700240425DAE701240325D7E70324A3
:102930000125D4E700ED00E00005FA0500E100E024
:1029400021F06041034B21F07F0108439860BFF301
:102950004F8F704700ED00E0830903F1804303F5DA
:10296000043300F01F001968012202FA00F0084346
:1029700018607047830903F1804303F5043300F0C6
:102980001F001A68012101FA00F022EA0000186015
:102990007047FFF7E1BFFFF7EDBF0000F0B55F4BF9
:1029A00089B0054604AC03F110061F461868596843
:1029B000224603C20833B3421446F7D1716838691E
:1029C0006B4603C303C356494B68C3F38103022B11
:1029D00041D14A684868CB6A0601C2F383424FEA94
:1029E000D37300F19480002B40F0958002324B6845
:1029F000C86ADC032DD5CB6A400003F00F0354BF37
:102A0000484849480133B0FBF3F35A434B68C3F3DA
:102A1000031320336B4413F8104C4B68C3F30223A9
:102A200020336B4422FA04F413F8206C4B68C3F390
:102A3000C22320336B4413F8183C24FA03F0062D0C
:102A40005ED8DFE805F05F0A0D0B103F4800113239
:102A5000CDE7364BD9E7334AD8E7204609B0F0BD79
:102A600024FA06F0FAE70B6BDA0507D40B6B304853
:102A700013F4803F2F4B18BF1846EFE74A680B6BE3
:102A8000C2F38132022A4FEAD3730FD0032A14D043
:102A9000012A06D00BB94008E0E70320B4FBF0F0B0
:102AA000DCE70BB98008D9E70520F7E71BB9062357
:102AB000B0FBF3F0D2E70720F0E70BB9C008CDE791
:102AC0000920EBE70B6B13F0400F48F2120018BF20
:102AD0004FF40040C2E70B6B9B07BFD00B6B03F0BA
:102AE0000303012B0ED00B6B03F00303022B0BD05F
:102AF0000B6B0C4803F00303032B18BF0020ADE75A
:102B00000020ABE71046A9E74FF40040A6E7002BF2
:102B10009DD031326BE7213269E700BFB84300082E
:102B20000010024000127A00006CDC0200093D0037
:102B3000809FD500003FAB0108B50C4B98420DD0EB
:102B400003F57443984210D140F20E30FFF721FF95
:102B500040F20E30BDE80840FFF71DBF40F21140C3
:102B6000FFF717FF40F21140F4E708BD00440040B2
:102B700038B5134B984204460D4618D003F57443FC
:102B8000984216D10620FFF709FF226812044FEA87
:102B9000550310D503EB4003B3FBF5F1C1F342033A
:102BA00021F00F010904090C1943E16038BD02202E
:102BB000E9E70020E9E70344B3FBF5F189B2F4E764
:102BC00000440040026822F001020260026822F420
:102BD000C06202600368194301607047026822F016
:102BE00001020260026822F4805202600368194305
:102BF00001607047026822F001020260426822F41C
:102C0000405242604368194341607047036843F093
:102C1000010303607047026822F008020260036843
:102C2000194301607047026822F0040202600368E1
:102C3000194301607047826822F040028260836815
:102C4000194381607047826822F080028260836845
:102C50001943816070478B0901F01F011858C84063
:102C600000F001007047026A01F01F01012303FA1E
:102C700001F11143016270478A0910B501F01F018B
:102C80001458012303FA01F12143115010BDC1F37F
:102C9000891310B51C588B0D1A58C1F30440012339
:102CA00003FA00F0104007D001F01F0103FA01F110
:102CB000214214BF1846002010BD0000094B994264
:102CC00006D1D0F8D03023F40043C0F8D03070479C
:102CD000026AC1F30441012303FA01F111430162C5
:102CE000704700BF09340F3470472DE9F84F9946FB
:102CF0000D9B15469A07DDE90B4706468B4622D009
:102D00002A460A9901EB04081444A2421FD10D9BE4
:102D10009B0705D5A2EB0508474505EB08041FD81E
:102D20002046BDE8F88F4B4659462020B04708F1B1
:102D30000108B8450AEB0802F5D33A1BBC4288BF2C
:102D400000222A44DDE7A046A5EB040AF1E702F1E0
:102D5000010A18F8010D4B465946B0475246D4E7D0
:102D60004B46224659462020B04708F10108D3E7D8
:102D70002DE9F047DDE90D7616F0020FDDE9085484
:102D8000DDE90BC89DF828E01FD106F001094FB11D
:102D9000B9F1000F06D0BEF1000F02D116F00C0FF2
:102DA00000D0013F4FF0300A04E0202C04D005F899
:102DB00004A00134A045F8D84FF0300AB9F1000F53
:102DC00003D0BC4201D21F2C34D916F0100F1FD0F3
:102DD00016F4806F33D194B3444501D0BC422ED158
:102DE000B4F101082AD0BCF1100F33D1023C16F027
:102DF000200F31D11F2C15D84FF0780C05F804C0E6
:102E000001341F2C0ED84FF0300C05F804C00134EB
:102E10001F2C07D8BEF1000F23D04FF02D0C05F862
:102E200004C00134CDE90A76CDE90854BDE8F04785
:102E3000FFF75BBF05F804A00134BFE74446BCF1CF
:102E4000100FD4D0BCF1020FDBD11F2CEAD84FF009
:102E5000620CD3E74446F5E71F2CE3D84FF0580C3B
:102E6000CCE716F0040F02D04FF02B0CD7E716F08A
:102E7000080FD7D04FF0200CD1E72DE9F04391B0E7
:102E8000189D1A9E1D9F0DB927F010077C0500D5CF
:102E900015B317F0200F14BF4FF0410E4FF0610E25
:102EA000AC460DF120080025AEF10A0EBCFBF6F988
:102EB00006FB19C95FFA89F4B9F1090F94BF3034E0
:102EC0007444E4B2B44508F8014BBCFBF6F405F1D8
:102ED000010501D3202D10D11C9C05941B9C069745
:102EE000CDE903649DF86440CDE9015408AC009439
:102EF000FFF73EFF11B0BDE8F083A446D6E72DE909
:102F0000F04F2DED048B93B0DDE92065289F9A46A4
:102F100056EA050308BF27F0100709EE102A7A05C4
:102F2000DDE924B908EE100A08EE901A02D556EA37
:102F300005033DD017F0200F14BF412361230A3B46
:102F40000DF12808002409935A464B46304629467D
:102F5000FDF7BCFDD2B2092A8ABF099B3032D218D4
:102F60005E45D2B275EB090308F8012B04F10104A8
:102F700001D3202C19D1279B0593269B0697CDE9D9
:102F800003B39DF88830CDE901430AAB009319EEF5
:102F9000102A18EE901A18EE100A5346FFF7E8FEB2
:102FA00013B0BDEC048BBDE8F08F06460D46CBE7B1
:102FB0000024E0E7000000002DE9F04F2DED088B24
:102FC0008DB009EE903ADDE920439DED1E7B0A931A
:102FD000229B079209EE100AB0EE478AF0EE678A4C
:102FE0008A46069351EC170B53EC172BFDF7F4FCB4
:102FF00080B1D14B51EC180B4FF0FF32FDF714FDAF
:1030000040B951EC180B4FF0FF326FF48013FDF70D
:10301000EDFC98B1069B22930A9B079ACDE92043C9
:1030200019EE100A19EE903A51468DED1E8B0DB037
:10303000BDEC088BBDE8F04F00F0A2B951EC180BC5
:1030400000220023FDF7D2FC002800F0458118EE95
:10305000903A18EE108A03F10049069BC9F30A5012
:1030600013F48063A0F2FF3008BF06240B93FDF732
:10307000E1F9A1A3D3E90023FDF746FAA0A3D3E920
:103080000023FDF78BF8C9F313050F4645F07F5178
:103090000646AA4B0022404641F44011FDF77CF859
:1030A00099A3D3E90023FDF72FFA02460B463046D9
:1030B0003946FDF773F8FDF7C1FC8346FDF7BAF911
:1030C00093A3D3E9002306460F46FDF71DFA9C4B58
:1030D0000022FDF763F8FDF7B1FC8FA3D3E90023CD
:1030E000054639463046FDF70FFA064628460F4694
:1030F000FDF7A0F98AA3D3E90023FDF705FA0246FC
:103100000B4630463946FDF747F802460B46064661
:103110000F46FDF7F9F9324641EC1A0B3B463046B3
:103120003946FDF73BF8874B41EC1B0B002251EC75
:103130001A0BFDF713FB844B0022FDF72FF8024614
:103140000B4651EC1A0BFDF709FB804B0022FDF7F3
:1031500025F802460B4651EC1A0BFDF7FFFA3246F2
:1031600041EC1A0B3B4600204FF08041FDF714F86C
:1031700002460B4651EC1A0BFDF710F802460B46BF
:1031800051EC1B0BFDF7EAFA05F2FF35704B0022FC
:10319000FDF704F800222B05FDF7B6F942464B4631
:1031A00006460F46FDF740FC002840F09880CDE928
:1031B00008670BF16303C72B069B34BF0425052565
:1031C000190522D558A3D3E9002340464946FDF707
:1031D00021FC002800F0BE8055A3D3E9002340461F
:1031E0004946FDF703FC002800F0B480069B5C45CF
:1031F000C8BFA4EB0B0043F480634FF00005CCBFC5
:1032000000F1FF3400240693AB460A9B9D4238BF71
:103210005E1B069B28BF002613F0020702D0002D7C
:1032200018BF0026BBF1000F07D040464946DDE934
:103230000823FDF793FA8046894651EC180B0022CB
:103240000023FDF7D3FB10B109F100439946069B1B
:10325000079A029423F40063CDE90363CDE9008962
:1032600019EE903A19EE100A514600F089F875B33C
:10327000069B13F0200F00F10106024619EE903A6A
:1032800014BF45206520514619EE104AA04705237A
:10329000002205938BEAEB700A23CDE90232A0EB02
:1032A000EB704FEADB73013D0193009019EE903A09
:1032B00019EE100A049532465146FFF7DEFD37B18C
:1032C000079BC51A079B58190A9BAB424BD80DB0F8
:1032D000BDEC088BBDE8F08F59EC188BBDE61A4B9E
:1032E000002230463946FDF739FA0BF1FF3BCDE9B4
:1032F00008015EE7AFF30080FB799F501344D33F92
:10330000B3C8608B288AC63F61436F63A787D23FEB
:1033100071A379094F930A401655B5BBB16B0240B2
:10332000EF39FAFE422EE63F2D431CEBE2361A3F00
:103330000000000080842E41FFFFEF7F0000F83F77
:103340000000E03F00002C40000024400000184036
:103350000000F03F002C3FF458AF0B9B002B3FF4D4
:1033600054AF013C51E7024619EE903A19EE104A6B
:1033700051462020A0470135A4E700BF000000000F
:103380002DE9F04F2DED088B8FB0DDE920AB09EE74
:10339000103ADDE9225308EE100A08EE902A0F4693
:1033A000049352465B4650465946249EFDF714FB53
:1033B000A0B9049B229303232193B94B2396209316
:1033C00018EE902A19EE103A18EE100A39460FB08E
:1033D000BDEC088BBDE8F04FFFF787BC4FF0FF3224
:1033E0006FF4801350465946FDF700FB30B1049B43
:1033F0002293042321932396AA4BE0E7AA4B4FF094
:10340000FF3250465946FDF70FFB70B1A74A0499A9
:10341000239606F00403002B08BF0322A44B1CBF15
:1034200013460422CDE92121C9E799A3D3E900235A
:1034300050465946FDF7F8FA38B997A3D3E9002367
:1034400050465946FDF7D2FA98B1049B2496CDE92F
:10345000225318EE902A19EE103A18EE100A394647
:10346000CDE920AB0FB0BDEC088BBDE8F04FFFF706
:10347000A3BD0022002350465946FDF7B7FA0028A5
:1034800000F081805B46524600200021FCF784FE5C
:10349000012382468B46059316F4806F08BF0625EC
:1034A00006ABA5F12002A9463021B9F1090FA5EB21
:1034B000090406D909F1FF394A4503F8011BF4D183
:1034C000202459465046FDF7B9FA7A4B03EBC9035D
:1034D00093ED007B0546B0EE47AAF0EE67AAFCF735
:1034E000A9FF02460B4650465946FCF755FE53ECE1
:1034F0001A2BFDF709F802460B4643EC1B2BFDF790
:10350000C5FA8046FCF786FF02460B4651EC1B0BC2
:10351000FCF742FE02460B4643EC1B2B664B002297
:10352000FDF782FA88B308F101084046FCF772FF04
:1035300002460B4651EC1A0BFDF762FA10B1013549
:103540004FF00008B9F1000F50D12846FCF772FF88
:1035500002460B4650465946FCF71EFE564B0022CB
:1035600080468946FDF742FA30B1534B002240466F
:103570004946FDF759FA10B1E80700D5013506AB09
:1035800023440A2259E0059086E74B4B51EC1B0B74
:103590000022FDF72BFA0028D4D1B8F1000F02D099
:1035A00018F0010FCED008F10108CBE7B8FBF1F01D
:1035B00001FB10823032B8F1090F03F8012B09F139
:1035C000FF3904F1010428D8A14406AA3021202C97
:1035D00011D04C4504F1010321D104F138020DEB67
:1035E00002042E2204F8202C1C46C8E706AB234414
:1035F0000A21202CDAD106F00303012B06AB39D1C6
:10360000049A002A36D0059A12B916F00C0F02D08F
:10361000049A013A0492302214E08046E9E7A1546A
:103620001C46D4E795FBF2F102FB1155303503F847
:10363000015B01340D460029DDD0202CF2D1DAE700
:103640001A5501340499A14214D9202CF8D1049AB6
:103650000093CDE9014219EE103A18EE902A18EEC7
:10366000100A03963946FFF740FB0FB0BDEC088BFC
:10367000BDE8F08F202CEAD0059AFAB104F13802A7
:103680006A442D2102F8201C0134E0E7AFF30080EA
:103690000000000065CDCD410000000065CDCDC12A
:1036A0003E46000842460008FFFFEF7F394600080B
:1036B00035460008484600080000E03F710704D581
:1036C00004F138026A442B21DCE73207BFD504F14C
:1036D00038026A442021D5E708B100F0B7BA704734
:1036E0002DE9F04F91B000290A93BA4B1A9E9046EB
:1036F00014BF8146994600250A9B187858B945455C
:103700002CBF08F1FF322A4643460020C84728460E
:1037100011B0BDE8F08F0A9B252803F101030A933D
:1037200006D02A466C1C43460B91C8472546B6E195
:10373000002206E02D2B14D0302B0CD142F00102D8
:103740000A900A9810F8013B2B2B0DD0F2D8202BB1
:103750000DD0232B0ED0A3F13004092C28D800273C
:1037600010E042F00202EBE742F00402E8E742F028
:103770000802E5E742F01002E2E70A2404FB0737FB
:10378000303F0A900A9810F8013BA3F13004092C4D
:10379000F3D90A9B1B782E2B67D10A9B581C5B78A8
:1037A000A3F13004092C42F4806255D8002411E0C2
:1037B0002A2B08D156F8047B0A90002FBCBF42F098
:1037C00002027F42E5E70027E3E70A2000FB04341A
:1037D000303C604684461CF8013BA3F1300EBEF13C
:1037E000090FF2D9034613F801CBBCF16C0F48D096
:1037F0003ED8BCF1680F4DD0BCF16A0F55D00346DE
:1038000013F8010B0A9378288BD8572850D84528ED
:1038100005D086D9462800F02F81472881D100F0B5
:10382000DF03472B04BF00F0FD0042F4006245288F
:1038300008BF42F02002CDE90372073626F00706E2
:103840000294F6E802234846CDE9002343462A467F
:103850000B91FFF7B1FB21E12A2B07D156F8044B5E
:103860000A9824EAE4740230BCE70A980024B9E715
:10387000BCF1740F02D0BCF17A0FC0D142F4807257
:10388000BEE790F801C0BCF16C0FF7D142F4407272
:10389000831CB5E790F801C0BCF1680F02D042F07C
:1038A0008002ADE742F0C002F2E742F40072A7E7FF
:1038B000A0F15803202B3FF634AF0FF2080C5CF850
:1038C00023F000BF493900082337000823370008D8
:1038D0002337000823370008233700082337000860
:1038E0002337000823370008233700084939000828
:1038F000A33A0008493900081F3800087D3A00083B
:103900001F3800082337000849390008233700080A
:10391000233700082337000823370008233700081F
:1039200049390008EB3B000823370008233700081B
:103930001F3B0008233700084939000823370008D7
:103940002337000849390008782800F06481582896
:1039500000F05F816F2800F06081622800F05F81D5
:10396000692822F010024FF00A0303D0642801D026
:1039700022F00C0212F4806F18BF22F001026928B5
:1039800002F4007C01D0642841D1BCF1000F23D0A7
:10399000073626F00706B24676685AF8080B0493F5
:1039A00000230593F30F002E0293CDE907720694CE
:1039B000034602DA434266EB4606CDE9003643464B
:1039C0002A4648460B91FFF79AFA0B990546564648
:1039D00092E600BFE92C0008D00506F1040A0CD5D8
:1039E0003068CDE90472CDE9023400284FEAD07383
:1039F0000193B8BF4042009027E012F0400F3068BA
:103A000001D0C0B2EDE7160648BF00B2E9E7BCF14D
:103A1000000F0ED0CDE907720022CDE9043207363F
:103A200026F0070A06940292FAE80223CDE9002361
:103A3000C5E7D00506F1040A0ED5CDE90472CDE93B
:103A40000234CDF804C03368009343462A46484602
:103A50000B91FFF712FAB8E712F0400F306807D069
:103A6000C0B2CDE902340023CDE904720193C2E76C
:103A7000160648BF80B2F4E742F02002CDE9037297
:103A8000073626F007060294F6E802234846CDE9F9
:103A9000002343462A460B91FFF772FC05460B991B
:103AA0002AE612F0020426D04FF0010A56F8040B61
:103AB0000B9143462A46C0B2C84705F1010B0B994A
:103AC0005CB354465A4620E00B9143462020C84739
:103AD0000B990AEB05020AF1010A5745F4D8002FA9
:103AE00007F1FF3308BF002307F1010A1D4408BF97
:103AF0004FF0020ADAE7A246EBE70B91434620209B
:103B0000551CC8470B9901342A46BC42F5D3A7EB94
:103B10000A03574538BF00239B445D46ECE5334616
:103B2000002C53F804AB0B9314BF23464FF0FF3324
:103B30005344D3469BF8000008B19B4511D112F4C1
:103B40008063ABEB0A0B0C9302D0A34528BFA346BE
:103B500012F002030D931BD1ABEB05032A460E9323
:103B600009E00BF1010BE5E70F9143462020561CBD
:103B7000C8470F9932460E9BD3189F42F4D8A7EB43
:103B80000B035F4538BF00230BF1010B1D449B4421
:103B90005646A5EB0A0A05E01C460E9143462A4606
:103BA000C8470E990AEB060516F8010B28B10C9BC5
:103BB000002BF2D0631E002CEED10D9B9BB12A4648
:103BC000ABEB050406E00C9143462020561CC84789
:103BD0000C9932461319BB42F5D3A7EB0B035F4593
:103BE00038BF00231D440B9E86E542F021020823C6
:103BF000CDE90343059200231022CDE9013256F8A6
:103C0000043B00932A46434648460B91FFF735F99B
:103C100044E742F020021023AAE60823A8E6022384
:103C2000A6E600BF0FB41FB506AA02A952F8043BCE
:103C30000392009204484FF0FF32FFF751FD05B0A8
:103C40005DF804EB04B07047D936000838B5074D6D
:103C5000044640F207712846FEF7FDFF0028F8D021
:103C60004FF04023C3F8284438BD00BF0044004053
:103C700010B504468268531C4068834205D820680A
:103C80008154A360E3680133E360A26863689A42E9
:103C900000D010BD2168206900F0CEFAA3689842D8
:103CA00003D04FF0FF33E360F3E70023A360F0E7B6
:103CB0002DE9F84F81460F4615461E46DDF828A02F
:103CC0000B9A0B464FF0010803E0B3FBF5F308F144
:103CD0000108AB42F9D2B04500D2B04612F0010B58
:103CE00018D1BAF1000F15D012F0020F02D0BEB1F8
:103CF000202400E02024BAF1000F0BD0C24509D9DE
:103D00000AF1FF3A21464846FFF7B2FFD9F80C30D6
:103D1000002BF0DAD9F80C30002B25DB012404E06D
:103D20003024E8E7013E05FB04F4012EFAD8B7FB86
:103D3000F4F39D42F7D900E01C46B7FBF4F304FB13
:103D40001377124AD15C4846FFF792FFD9F80C303E
:103D5000002B03DBB4FBF5F3AC42EDD2BBF1000F5B
:103D600002D0BAF1000F01D1BDE8F88FBAF1000F0F
:103D7000FAD0C245F8D90AF1FF3A20214846FFF7A8
:103D800077FFD9F80C30002BF0DAEDE79846000801
:103D90002DE9F04782B007468846154699460A9EA7
:103DA000DDF82CA081EAE17CACEBE17C012402E0AF
:103DB0009CFBF5FC01346545FADD4C4500D24C46D0
:103DC00036B1B8F1000F02DB1AF0040F00D0013E4B
:103DD0001AF0020F02D0B9F1000F03D01AF0010F50
:103DE00000D1AEB9FB68002B0FDBB8F1000F1CDB74
:103DF0001AF0040F20D1FB68002B06DB0AF0030346
:103E0000022B1ED0FB68002B2DDA02B0BDE8F08734
:103E1000002EE7D0A642E5D9013E20213846FFF723
:103E200027FFFB68002BF3DADCE7C8F100082D213F
:103E30003846FFF71DFFDEE72B213846FFF718FF56
:103E4000D9E7B9F1000FDDD1002EDBD0002ED9D09B
:103E5000A642D7D9013E30213846FFF709FFFB685B
:103E6000002BF3DACEE7CDF804A000964B462A46A5
:103E700041463846FFF71CFFC7E70000F0B599B090
:103E800006460C46154603AB1393402314930023B8
:103E90001593179016938AE00020012211E040F05C
:103EA000010001340CE040F00200013408E040F071
:103EB0000400013404E040F00800013400E0002276
:103EC00012B32378233B0D2BF9D801A151F823F02D
:103ED000B73E0008BF3E0008BF3E0008BF3E0008D6
:103EE000BF3E0008BF3E0008BF3E0008BF3E0008BE
:103EF000AF3E0008BF3E00089F3E0008BF3E0008DE
:103F0000BF3E0008A73E00082378A3F13001C9B2E4
:103F1000092907D8013402EB820203EB4203A3F123
:103F20003002F1E72E2B02D00023217813E0013478
:103F3000002305E0013403EB830301EB4303303B33
:103F40002178A1F1300C5FFA8CFCBCF1090FF1D99A
:103F5000EBE714F8011F6C29FBD06829F9D025295B
:103F60006DD020D378291ED858291CD35839202940
:103F700019D8DFE801F03D18181818181818181883
:103F8000181127181818181818181818181857186A
:103F90001848183218183D002B681A1D2A60197825
:103FA00013A8FFF765FE0134169B002B4CDB14F8B9
:103FB000011B002948D025293FF46EAF13A8FFF755
:103FC00057FEF1E729680F1D2F60096801900092E4
:103FD0000A2213A8FFF7DCFEE5E729680F1D2F6012
:103FE0000968019000920A2213A8FFF761FEDAE740
:103FF00029680F1D2F60096801900092102213A8F4
:10400000FFF756FECFE72B681A1D2A601F6817F8C6
:10401000011B0029C7D013A8FFF72AFE169B002B0F
:10402000F5DAC0E72B681A1D2A601968002301938E
:1040300008230093102213A8FFF73AFEB3E72521C7
:1040400013A8FFF715FEAEE7169B002B05DD159AAA
:1040500032B9159A169B13441693169819B0F0BDF1
:1040600003A9304600F0E8F8F3E700BF0EB400B54E
:1040700082B003AB53F8041B019301AAFFF7FEFEC5
:1040800002B05DF804EB03B070470369C268934265
:1040900004D88068801A0344581E70479B1A581E23
:1040A0007047000010B5154CA82200212046FDF7EE
:1040B000B7FE0323236163611149A161114BE361E1
:1040C000202323620023A36263620222E26221664C
:1040D0000D4961661021A1662367E3666267BFF33D
:1040E0005F8F06E0C3F10F020849895C034AD1548F
:1040F00001330F2BF6D9BFF35F8F10BD30050020C1
:10410000A8460008E8050020D8050020B4460008AD
:10411000884203D008B5FDF7C5FD08BD70472DE9FD
:10412000F843044688461646C5688768A7EB050924
:10413000914509D940682844FFF7EAFFBFF35F8F34
:104140003544E560BDE8F88340684A462844FFF7F7
:10415000DFFFED1B35442A4608EB09016068FFF7D5
:10416000D7FFBFF35F8FE560ECE72DE9F843064624
:1041700088461746C5684FF000091AE0641B621EA6
:10418000B3685C1B944228BF1446BC4228BF3C461F
:104190007068224641462844FFF7BAFFA144A04474
:1041A0003F1B2544B368AB420BD0BFF35F8FF56074
:1041B0004FB13469A542E1D3B268641B1444621E56
:1041C000DEE70025F1E74846BDE8F883F8B50F467D
:1041D0001646184B451C05EB450503EBC50500EBE2
:1041E000400003EBC000C46A012C11D0022C1CD08B
:1041F00014B100242046F8BD2846FFF746FF86424A
:10420000F8D8324639462846FFF789FF3446F1E7A9
:104210002846FFF73AFF3446864228BF0446224626
:1042200039462846FFF77BFFE4E72846FFF79DFF66
:104230000446DFE730050020F8B504460D46164673
:104240000A4B1B78DBB2532B0DD1EFF311874FF0E4
:10425000200181F31188324629462046FFF7B6FF38
:1042600087F31188F8BDFFF71DFFEEE7300500204A
:1042700008B5FFF717FF08BD08B5062000F036F8AF
:10428000012000F089F800BF032A70B515D940EA73
:10429000010C1CF0030F04460B4621D119462046A1
:1042A0000E680568B54204F1040403F1040317D154
:1042B000043A032A20461946F0D8541EA2B100F150
:1042C000FF3C013901E0C3180CD01CF801EF11F8D4
:1042D000012F9645A4EB0C03F5D0AEEB020070BDA8
:1042E000541EECE7184670BD104670BD38B5154B2E
:1042F0001F281D6820D8D5F8DC22044662B152F888
:1043000020304BB1012B15D0591C0FD0002542F89D
:1043100020509847284638BD284600F02BF8224602
:1043200001462846BDE8384000F00EB816232B6041
:10433000012038BD002038BD16232B604FF0FF3020
:1043400038BD00BF0000002070B50C46084D034684
:104350000026204611461C462E6000F015F8431C2E
:1043600000D070BD2B68002BFBD0236070BD00BF58
:104370000806002000F000B8024B58221A604FF0E7
:10438000FF30704708060020024B58221A604FF099
:10439000FF30704708060020FEE700BFF8B500BFF9
:1043A000F8BC08BC9E467047F8B500BFF8BC08BC16
:0443B0009E4670476E
:1043B80000000000000000000102030406070809CD
:1043C800000000000102030408000020486572652F
:1043D80020697320536567676572205254542064BE
:1043E800656661756C74206368616E6E656C0D0A34
:1043F800000000005365636F6E642025640D0A0099
:1044080025730D0A0000000025730000443A2F5060
:10441800726F6A6563742F474433325F50726F6AF4
:104428006563742F474433325F434D616B655F4565
:1044380078616D706C652F436F72652F7372632F8F
:10444800746573742E6300001B5B303B33316D5B06
:104458004552524F525D206572726F72206F7574AB
:10446800707574207465737428252D36733A256425
:104478002D3E2573291B5B306D0D0A000D0A53650F
:104488007269616C20706F727420726563656976F9
:10449800696E6720746573742C2073656E64696E29
:1044A80067206D6573736167657320746F20746826
:1044B800652073657269616C20706F7274206F6615
:1044C80020746865206D6963726F636F6E74726FB4
:1044D8006C6C65722C20616E64207468652073654D
:1044E8007269616C20706F72742072657475726E77
:1044F80073206D657373616765732E0D0A00000084
:104508000D0A54686520666F726D6174206F6620AD
:10451800746865206D65737361676520726574756D
:10452800726E6564206279207468652073657269AB
:10453800616C20706F727420697320617320666FDC
:104548006C6C6F77733A0D0A000000005B54686565
:10455800206D65737361676520796F752073656E6B
:10456800645D00000D0A7561727420726563656987
:10457800766564206D6573736167653A0D0A257306
:104588000D0A2D2D2D2D2D20454E44202D2D2D2D60
:104598002D0D0A0075617274207265636569766510
:1045A80064206D6573736167653A0D0A25730D0A9A
:1045B8002D2D2D2D2D20454E44202D2D2D2D2D0D0D
:1045C8000A000000525454207465737400000000FF
:1045D8005254545F746573742073746172742E0D31
:1045E8000A0000005254545F7465737420656E6449
:1045F8002E0D0A00756172745F7465737400000093
:10460800436F6E74726F6C2075617274207472617E
:104618006E736D697373696F6E2062792072656756
:104628006973746572206D6F64650D0A00666E6942
:1046380000666E692B006E616E00666E692D000063
:10464800000000000000F03F0000000000002440CF
:1046580000000000000059400000000000408F40AA
:10466800000000000088C34000000000006AF84015
:104678000000000080842E4100000000D012634139
:104688000000000084D797410000000065CDCD41AF
:104698003031323334353637383941424344454670
:1046A8005465726D696E616C0000000000000000C6
:1046B800000054545220524547474553000000001B
:1046C80008B10181B0B000840000000008B1018188
:1046D800B0B000840000000008B10181B0B00084CF
:1046E8000000000008B10181B0B0008400000000A3
:1046F80008B10181B0B0008400000000C912018136
:10470800B0B0AF8100000000C90C0181B0B0AF8328
:1047180000000000C90E0181B0B0AF8300000000A6
:1047280084040181B00FB100000000008401018100
:10473800B00EB1000000000008B10181B0B00084E3
:104748000000000008B10181B0B000840000000042
:1047580008B10181B0B000840000000008B10181F7
:08476800B0B000840000000065
:104770008CC3FF7F01000000ECC6FF7FB0A9028060
:1047800080C7FF7FB0B0A880D0C7FF7F01000000C6
:10479000DCC7FF7FB0B0AA8010C8FF7FAE71B280C7
:1047A000D4C8FF7F01000000D0C8FF7FAB3F388036
:1047B00030C9FF7F0100000038C9FF7FB0B0AA8078
:1047C00074C9FF7F0100000020CAFF7FAA0DB280DC
:1047D0009CCAFF7FB0AF08803CCDFF7F0100000086
:1047E00040CDFF7FAD3F0280BCCFFF7F01000000C6
:1047F00098D1FF7F00840480ACD1FF7F01000000CE
:10480000A8D1FF7FB0AD04804CD4FF7FB0A8038057
:1048100070D4FF7F44FFFF7F74D4FF7F48FFFF7F8A
:1048200080D4FF7F010000007CD7FF7FB0B0B08054
:1048300084D7FF7F94FEFF7F84D7FF7F98FEFF7FA2
:1048400094D7FF7FB0B0B080B4D7FF7FB0B0A08066
:10485000DCD7FF7FB0B0B080E8D7FF7FA908B18078
:1048600030D8FF7FB0B0A88070D8FF7FB0A801809B
:1048700060D9FF7FB0A90880F0D9FF7F64FEFF7F79
:1048800044DAFF7FB0B0A8809CDAFF7F60FEFF7F34
:10489000BCDAFF7FA908B180FCDAFF7FB0B0AA8044
:1048A00058DBFF7FB0B0B0807CDBFF7F01000000F1
:1048B000C8DBFF7FB0B00180ACDDFF7FB0B0B0805F
:1048C00040DEFF7FA908B180ACDEFF7FB0B0B080D2
:1048D000D4DEFF7FB0B0AD8010DFFF7FB0B0AB8023
:1048E000D8DFFF7FB0B0A98058E0FF7FB0B0B080C4
:1048F000ACE0FF7FB0AB088040E2FF7FFCFDFF7FB4
:1049000070E2FF7FA908B180BCE2FF7FB0B0B08049
:1049100068E3FF7FB0B0A880A4E3FF7FB0B0B080B1
:10492000CAE3FF7FAF08B18048E4FF7FB0B0AE803C
:104930004AE5FF7FB0AD1080C6E5FF7FC8FDFF7F71
:1049400078E6FF7FCCFDFF7F38EAFF7FD0FDFF7F59
:1049500088EDFF7FB0B0B08088EDFF7FB0AF1080F2
:10496000C4F2FF7FC4FDFF7FE4F2FF7FA908B1809E
:1049700000F3FF7FB0B0A88038F3FF7FAF08B180AD
:1049800010F4FF7FB0AE0180F4F4FF7FB0AB18806D
:10499000DCF6FF7FA0FDFF7FF2F6FF7FB0B0B080B6
:1049A00004F7FF7FB0B0A88068F7FF7F94FDFF7F1A
:1049B0006EF7FF7FAD08B18014F8FF7FAB08B180C0
:1049C000B0F8FF7F88FDFF7FB0F8FF7F0100000097
:0849D000C51E00087501000876
:0449D8005101000881
:1049DC00080000200000000000000000F40200208D
:1049EC005C030020C4030020000000000000000055
:1049FC0000000000000000000000000000000000AB
:104A0C00000000000000000000000000000000009A
:104A1C00000000000000000000000000000000008A
:104A2C00000000000000000000000000000000007A
:104A3C00000000000000000000000000000000006A
:104A4C00000000000000000000000000000000005A
:104A5C00000000000000000000000000000000004A
:104A6C00000000000000000000000000000000003A
:104A7C00000000000000000000000000000000002A
:104A8C0001000000000000000E33CDAB34126DE6C7
:104A9C00ECDE05000B000000000000000000000030
:104AAC0000000000000000000000000000000000FA
:104ABC0000000000000000000000000000000000EA
:104ACC0000000000000000000000000000000000DA
:104ADC0000000000000000000000000000000000CA
:104E0C008C0400205561727420746573740D0A0053
:104E1C0053656E6420646174612066726F6D2075D9
:104E2C00617274206279207072696E746620667586
:104E3C006E6374696F6E0D0A0000000000A24A04D4
:0400000508002425A6
:00000001FF
